:02000004085F93
:1080000000805F08FCFF5F080000060020000501FB
:08801000040139180000000012
:108018001348144908B5884205D0134A824202D051
:10802800124B121A98471248124A0021124B121A80
:10803800984712481249884205D0124A824202D013
:108048000A4B121A984710481049884205D0104A1E
:10805800824202D0054B121A9847014808BD00BF5A
:108068008CA8071038F65F0804A907102D0D111009
:1080780004A90710FCAF0710A10E1110688A3F026F
:10808800A8805F08708A3F02708A3F02B0805F084C
:0C809800F8FF3F0219805F0800000000A4
:0880A8009C805F0850F53F02C7
:1080B00010F8012B11F8013B012A28BF9A42F7D092
:1080C000D01A7047034613F8012B002AFBD1181A67
:1080D0000138704770B505F00DF90025054E064CC6
:1080E000A41BA408AC4200D170BD56F8043B9847CD
:1080F0000135F7E7D0FF3F02F8FF3F0200F000B97B
:1081000008B500F09BFBBDE8084005F0ABB801F0F6
:10811000D1B901F0CFB901F0DBB900000C2008B5EE
:10812000024A034901F014F8FEE700BFB5953F028B
:1081300060F53F020078B0FA80F0400970470123F3
:108140000370704710687047704700001FB5074BF9
:108150003C221B7804468DF808300023CDE900321C
:108160001A4605F073FA204604B010BD60A9071046
:1081700010B50446094B036004F0ECF9214604F005
:1081800035FC05F08BFC05F07DFC2046044B40F8E7
:10819000043B04F0B5FA204610BD00BF24F83F02AE
:1081A0000CF83F0210B50446FFF7E2FF20462421F9
:1081B000FFF7B1FF204610BD10B543680446013BF0
:1081C000436063B903689B689847A368013BA36059
:1081D0002BB923682046BDE81040DB68184710BD66
:1081E0000EB44FF0200C002300B58CB00DAA52F84D
:1081F000041BCDE904C3CDE900120392016804AA6F
:108200001E2000F0C1FF0CB05DF804EB03B0704716
:108210001FB50A4681B1094C0146684601F093FA40
:108220006946204601F0DEFA684601F02DFA226820
:1082300003490448FFF7D4FF04B010BD68A9071034
:1082400075F53F0274AE071010B51049044601F0F1
:108250002EFB58B10E4C0D49204601F0CBFA0D48CB
:1082600022680D49FFF7BCFF012010BD20460B49D5
:1082700001F01DFB10B1064C0849EDE705482268E6
:108280000749FFF7ADFF4FF0FF30EEE72BF73F0256
:1082900068A9071074AE071085F53F029BF53F02F1
:1082A000A4F53F0210B51049044601F000FB58B197
:1082B0000E4C0D49204601F09DFA0D4822680D49EB
:1082C000FFF78EFF012010BD20460B4901F0EFFAA9
:1082D00010B1064C0849EDE7054822680749FFF749
:1082E0007FFF4FF0FF30EEE72BF73F02ACA90710FE
:1082F00074AE0710B8F53F029BF53F02A4F53F02AC
:108300007FB505F0CBFB4FF4165105F0B7FB01210B
:10831000042005F0D3FF02F063F802F0ABF8284A1E
:108320002849104603F0E6F80121084605F0C6FF8B
:1083300001210E2005F0C2FF0021022005F0BEFF42
:108340000021032005F0BAFF0221062005F0B6FF48
:108350000221072005F0B2FF062005F0D9FF012811
:1083600028D10022184B1A7000240C26174D01AB9F
:1083700004221749174801940394ADF8046002954C
:1083800001F044F801AB042213491448019403940A
:10839000ADF80460029501F039F8114A114912480C
:1083A00005F039F8114A12490F4804B0BDE8704091
:1083B00005F031B8072005F0ABFF0128D4D1D0E794
:1083C000C0A90710D18B3F02BCA90710058B3F0243
:1083D00068A90710D0F53F02ACA90710DDF53F02F0
:1083E000ECF53F02098C3F02ABDD3F02FEF53F0298
:1083F000658C3F022DE9F04F57488BB001F064FFC8
:10840000554D0446002840F0868054495448FFF7F3
:10841000E7FE01F0E5FF1E22524902F0BDF8814659
:10842000504FDFF86CA1DFF86CB1DFF834814C45B8
:1084300078DA05A801F02CFC012205A907F1080053
:1084400002F0F5FD002850D0514605A801F07BFC54
:1084500000284AD059464046FFF7C2FE01F0C0FF4F
:10846000012301463A4602A803F094FB029B039EB7
:108470002B606B689E4208D016B17368013373603D
:10848000686808B1FFF798FE6E6002A802F0FAF87B
:10849000314801F019FF40B333494046FFF7A0FED1
:1084A0004FF4FA7004F0A6FE2B4902A803F0A2FADA
:1084B000DDE9026306EBC303B342019305D0304606
:1084C00002F0D9F80836019BF6E7029801F000F8AF
:1084D000264A2749204802F0E3FF48B9404625498B
:1084E000FFF77EFE1C4802F045F9013424379EE771
:1084F000214A2249184802F0D3FF0028EED0204A32
:108500002049154802F0CCFF0028E7D040461E491C
:10851000FFF766FEE9E7284601F0D6FE28B900F02D
:108520009FFF88B90BB0BDE8F08F00F099FF0028DD
:10853000F5D1164B1A78002AF1D101221A700BB02E
:10854000BDE8F04F00F07EBF104B1A78002AE9D04A
:1085500000221A70E6E700BFC8A9071012F63F0212
:1085600074AE071000AA07103BF63F0238A90710A7
:10857000C0A9071053F63F024CA90710F8A907102D
:1085800024A90710A4A9071088F63F0261A90710C3
:1085900010A907101EF63F02F8B5022005F0B8FE3C
:1085A000124C134E2060032005F0B2FE0128114D3D
:1085B000306008D12B6833B90F4B187005F06EFA94
:1085C0000E4903F016FE23680D4F012B08D13A68BF
:1085D00032B90C4A137005F061FA0B4903F009FE39
:1085E00023683B6033682B60F8BD00BF78A9071093
:1085F0003CAE0710F4A9071040AE07109EF63F02EC
:10860000E0A907107CA90710B4F63F02F8B5274E81
:10861000274D3378274CBBB101232821264A2B60F4
:1086200011602370062005F073FE012815D1002784
:1086300005F034FA214903F0DCFD21492148277077
:1086400001F0D8F8377008E01F4A12782AB32822C0
:108650002B60194B1A60012323702E6886B90720FE
:1086600005F056FE01280BD105F018FA174903F062
:10867000C0FD17491348267001F0BCF8124B1E705C
:10868000237883B10C4B19680E2005F054FE29782D
:108690000120BDE8F84005F022BE23781BB12B680D
:1086A000012BDAD1BEE70021EEE700BF7CA907105D
:1086B00064A90710BCA9071038AE0710C8F63F021E
:1086C0002BF73F0268A9071040AE0710F5F63F02EE
:1086D0009BF53F0210B50446006808B1FFF76CFD3A
:1086E000204610BD07B51149114801F0D3F8C8B9AB
:1086F0000F490E4801F05CF80E490D4801F0D7F81B
:1087000040B10D496846FFF721FD01A8FFF7E2FFE0
:10871000012008E00949064801F0C9F80028F7D00F
:108720000749EFE7002003B05DF804FBD0A907106C
:1087300068A907109BF53F0224F73F022BF73F0281
:1087400032F73F0207B51149114801F0A3F8C8B943
:108750000F490E4801F02CF80E490D4801F0A7F81A
:1087600040B10D496846FFF7F1FC01A8FFF7B2FFE1
:10877000012008E00949064801F099F80028F7D0DF
:108780000749EFE7002003B05DF804FBE4A90710F8
:10879000ACA907109BF53F023EF73F022BF73F02C3
:1087A0004CF73F0210B5FFF79DFFB0B1184801F03C
:1087B0008BFD184C48B100222168174801F0F8FCE5
:1087C000226816491648FFF70BFD1649114801F0BB
:1087D0006EF8A8B1144B01221A70FFF7B3FF70B105
:1087E0000B4801F071FD50B1104C00222168104877
:1087F00001F0DEFC226809490948FFF7F1FC10BDD1
:108800000C49044801F053F80028E6D00A4BE2E78F
:10881000C8A9071068A90710F8A9071058F73F0260
:1088200074AE07102BF73F027CA90710ACA9071004
:10883000A4A907109BF53F0240AE071008B5FFF74B
:10884000D9FDFFF7A9FEFFF7E1FEFFF7ABFF0949EE
:10885000094801F02CF858B1084B1B7843B90121A5
:10886000042005F03CFDBDE80840192004F0C2BC1E
:108870000021F5E79BF53F0268A90710BCA9071086
:1088800070B51426D0E90053044606FB0356AE42E9
:1088900004D0284600F0F8FE1435F8E7206800F010
:1088A00017FE204670BD8842F8B504460D461646B0
:1088B00016D9904215D2A2F11406751AA1F1140727
:1088C0002C44B7421CD02CB13146204600F065FF45
:1088D000337C2374304600F0D7FE143E143CF0E79E
:1088E0000ED0B5420CD02CB12946204600F055FFE1
:1088F0002B7C2374284600F0C7FE14351434F0E7AF
:10890000F8BD00232DE9F041C0E9003383604F68D2
:1089100004469F420E4624DD4FF0140808FB07F082
:1089200000F0C8FD0546E0B1D4E9001208FB0212D0
:10893000FFF7B9FF206800F0CBFD2560A760D6E9FE
:10894000007308FB0378B84509D03946284600F083
:108950003EFF3B7C143505F8043C1437F3E773689D
:1089600063602046BDE8F08170B50024414B424A67
:108970001C70424B8CB09A60C3E90044022000F0A6
:108980002DFCCDE90044029405F088F805466946BF
:1089900003A8FFF7B6FF03A906A8394CFFF7B1FFFC
:1089A000384B06A9236009A8FFF7ABFF09AA1E21CF
:1089B000201D04F0FDF809A8FFF762FF06A8FFF7E5
:1089C0005FFF314B2562236003A8FFF759FF2F4B50
:1089D0001E25236005F062F84FF4165105F04EF89D
:1089E00003F0B8FD214603F0BBFF6846FFF748FFE0
:1089F0007F26274C204601F041F904F1080002F0DF
:108A00005DF904F1140002F059F9013D84F8206089
:108A100004F12404EED11F4801F032FC1E4801F09D
:108A200041FB1E4801F03EFB1D4801F03BFB1D4988
:108A30001D4801F007FA1D491D4801F003FA1D49C0
:108A40001D4801F0FFF91D491D4801F0FBF91D49C2
:108A50001D4800F064FE1B491C4800F060FE1C49E4
:108A60001C4800F05CFE1A491B480CB0BDE8704081
:108A700000F055BE60A907100000FFFF04A9071011
:108A800080A907100CF83F026CFB3F0224F83F025C
:108A900000AA0710C8A90710C0A90710F8A9071055
:108AA000A4A9071070F73F0210A9071095F73F021D
:108AB00038A90710BAF73F024CA90710DFF73F02A9
:108AC00024A907102BF73F0268A90710D0A90710A7
:108AD0009BF53F02ACA90710E4A9071009B50448AB
:108AE0000068044B03441B689B68029309BD0000A7
:108AF0008CA807105000000009B504480068044B1A
:108B000003441B68DB68029309BD00008CA80710B2
:108B10005000000009B504480068044B03441B687A
:108B20005B68029309BD00008CA8071014000000C8
:108B300009B504480068044B03441B689B68029312
:108B400009BD00008CA807101400000009B50448F6
:108B50000068044B03441B68DB68029309BD0000F6
:108B60008CA807101400000009B504480068044BE5
:108B700003441B681B69029309BD00008CA8071001
:108B80001400000009B504480068044B03441B6846
:108B90005B69029309BD00008CA807101400000057
:108BA00009B504480068044B03441B689B6A0293A0
:108BB00009BD00008CA807101400000009B5044886
:108BC0000068044B03441B689B6F029309BD0000BF
:108BD0008CA807101400000009B504480068044B75
:108BE00003441B685B68029309BD00008CA8071052
:108BF0000000000009B504480068044B03441B68EA
:108C0000DB68029309BD00008CA80710000000007B
:108C100009B504480068044B03441B685B69029370
:108C200009BD00008CA807100000000009B5044829
:108C30000068044B03441B689B68029309BD000055
:108C40008CA807106000000009B504480068044BB8
:108C500003441B68DB6F029309BD00008CA807105A
:108C60006000000009B504480068044B03441B6819
:108C7000D3F88430029309BD8CA80710600000006F
:108C800009B504480068044B03441B68D3F89830C6
:108C9000029309BD8CA807106000000009B50448C4
:108CA0000068044B03441B68D3F8B430029309BD39
:108CB0008CA807106000000009B504480068044B48
:108CC00003441B68D3F8BC30029309BD8CA807107D
:108CD0006000000009B504480068044B03441B68A9
:108CE000D3F8C430029309BD8CA8071060000000BF
:108CF00009B504480068044B03441B68D3F8D83016
:108D0000029309BD8CA807106000000009B5044853
:108D10000068044B03441B68D3F8DC30029309BDA0
:108D20008CA807106000000009B504480068044BD7
:108D300003441B68D3F8E030029309BD8CA80710E8
:108D40006000000009B504480068044B03441B6838
:108D5000D3F8E430029309BD8CA80710600000002E
:108D600009B504480068044B03441B68D3F8F0308D
:108D7000029309BD8CA807106000000009B50448E3
:108D80000068044B03441B68D3F8F430029309BD18
:108D90008CA807106000000009B504480068044B67
:108DA00003441B68D3F80031029309BD8CA8071057
:108DB0006000000009B504480068044B03441B68C8
:108DC000D3F80431029309BD8CA80710600000009D
:108DD00009B504480068044B03441B685B6C0293AC
:108DE00009BD00008CA807103000000009B5044838
:108DF0000068044B03441B689B6C029309BD000090
:108E00008CA807103000000009B504480068044B26
:108E100003441B68DB6C029309BD00008CA807109B
:108E20003000000009B504480068044B03441B6887
:108E30005B6D029309BD00008CA807103000000094
:108E400009B504480068044B03441B685B6902933E
:108E500009BD00008CA807104C00000009B50448AB
:108E60000068044B03441B689B68029309BD000023
:108E70008CA807102400000009B504480068044BC2
:108E800003441B68DB68029309BD00008CA807102F
:108E90002400000009B504480068044B03441B6823
:108EA0001B69029309BD00008CA807102400000074
:108EB00009B504480068044B03441B685B690293CE
:108EC00009BD00008CA807102400000009B5044863
:108ED0000068044B03441B689B69029309BD0000B2
:108EE0008CA807102400000009B504480068044B52
:108EF00003441B68DB69029309BD00008CA80710BE
:108F00002400000009B504480068044B03441B68B2
:108F10001B6A029309BD00008CA807102400000002
:108F200009B504480068044B03441B689B6A02931C
:108F300009BD00008CA807102400000009B50448F2
:108F40000068044B03441B68DB6A029309BD000000
:108F50008CA807102400000009B504480068044BE1
:108F600003441B681B6C029309BD00008CA807100A
:108F70002400000009B504480068044B03441B6842
:108F80001B6A029309BD00008CA8071010000000A6
:108F900009B504480068044B03441B685B6A0293EC
:108FA00009BD00008CA807101000000009B5044896
:108FB0000068044B03441B689B6A029309BD0000D0
:108FC0008CA807101000000009B504480068044B85
:108FD00003441B68DB6A029309BD00008CA80710DC
:108FE0001000000009B504480068044B03441B68E6
:108FF0001B6B029309BD00008CA807101000000035
:1090000009B504480068044B03441B685B6B02937A
:1090100009BD00008CA807101000000009B5044825
:109020000068044B03441B681B6C029309BD0000DD
:109030008CA807101000000009B504480068044B14
:1090400003441B68DB69029309BD00008CA807106C
:109050001800000009B504480068044B03441B686D
:109060001B6A029309BD00008CA8071018000000BD
:1090700009B504480068044B03441B681B6802934D
:1090800009BD00008CA807103400000009B5044891
:109090000068044B03441B685B68029309BD000031
:1090A0008CA807103400000009B504480068044B80
:1090B00003441B689B68029309BD00008CA807103D
:1090C0003400000009B504480068044B03441B68E1
:1090D0001B69029309BD00008CA807103400000032
:1090E00009B504480068044B03441B685B6902939C
:1090F00009BD00008CA807103400000009B5044821
:109100000068044B03441B689B69029309BD00007F
:109110008CA807103400000009B504480068044B0F
:1091200003441B68DB69029309BD00008CA807108B
:109130003400000009B504480068044B03441B6870
:109140001B6A029309BD00008CA8071034000000C0
:1091500009B504480068044B03441B685B6B029329
:1091600009BD00008CA807104800000009B504489C
:109170000068044B03441B681B6D029309BD00008B
:109180008CA807104800000009B504480068044B8B
:1091900003441B685B6D029309BD00008CA8071097
:1091A0004800000009B504480068044B03441B68EC
:1091B000DB6E029309BD00008CA807104800000078
:1091C00009B504480068044B03441B681B6F0293F5
:1091D00009BD00008CA807104800000009B504482C
:1091E0000068044B03441B685B68029309BD0000E0
:1091F0008CA807100800000009B504480068044B5B
:1092000003441B685B69029309BD00008CA807102A
:109210000800000009B504480068044B03441B68BB
:10922000DB6C029309BD00008CA807100800000049
:1092300009B504480068044B03441B685B6D029346
:1092400009BD00008CA807100800000009B50448FB
:109250000068044B03441B68D3F88830029309BDAF
:109260008CA807100800000009B504480068044BEA
:1092700003441B68D3F89430029309BD8CA80710EF
:109280000800000009B504480068044B03441B684B
:109290005B68029309BD00008CA80710280000003D
:1092A00009B504480068044B03441B689B6802939B
:1092B00009BD00008CA807102800000009B504486B
:1092C0000068044B03441B68DB68029309BD00007F
:1092D0008CA807102800000009B504480068044B5A
:1092E00003441B681B69029309BD00008CA807108A
:1092F0002800000009B504480068044B03441B68BB
:109300005B69029309BD00008CA8071028000000CB
:1093100009B504480068044B03441B689B69029329
:1093200009BD00008CA807102800000009B50448FA
:109330000068044B03441B68DB69029309BD00000D
:109340008CA807102800000009B504480068044BE9
:1093500003441B681B6A029309BD00008CA8071018
:109360002800000009B504480068044B03441B684A
:109370001B6B029309BD00008CA807102800000099
:1093800009B504480068044B03441B685B6B0293F7
:1093900009BD00008CA807102800000009B504488A
:1093A0000068044B03441B681B6C029309BD00005A
:1093B0008CA807102800000009B504480068044B79
:1093C00003441B685B6C029309BD00008CA8071066
:1093D0002800000009B504480068044B03441B68DA
:1093E0005B6D029309BD00008CA8071028000000E7
:1093F00009B504480068044B03441B689B6D029345
:1094000009BD00008CA807102800000009B5044819
:109410000068044B03441B681B68029309BD0000ED
:109420008CA807102C00000009B504480068044B04
:1094300003441B685B68029309BD00008CA80710F9
:109440002C00000009B504480068044B03441B6865
:10945000DB68029309BD00008CA807102C000000F7
:1094600009B504480068044B03441B685B69029318
:1094700009BD00008CA807102C00000009B50448A5
:109480000068044B03441B681B6A029309BD00007B
:109490008CA807102C00000009B504480068044B94
:1094A00003441B68DB6B029309BD00008CA8071006
:1094B0002C00000009B504480068044B03441B68F5
:1094C0001B68029309BD00008CA80710040000006F
:1094D00009B504480068044B03441B685B680293A9
:1094E00009BD00008CA807100400000009B504485D
:1094F0000068044B03441B689B68029309BD00008D
:109500008CA807100400000009B504480068044B4B
:1095100003441B685B6A029309BD00008CA8071016
:109520000400000009B504480068044B03441B68AC
:10953000DB6A029309BD00008CA80710040000003C
:1095400009B504480068044B03441B681B6B029375
:1095500009BD00008CA807100400000009B50448EC
:109560000068044B03441B68DB6B029309BD0000D9
:109570008CA807100400000009B504480068044BDB
:1095800003441B681B6C029309BD00008CA80710E4
:109590000400000009B504480068044B03441B683C
:1095A0005B6C029309BD00008CA80710040000004A
:1095B000002240681146FFF7C7BE002240681146EE
:1095C000FFF7DEBE00224068FFF7CCBE00224068F5
:1095D00081F00101FFF7AABE002340681A46194630
:1095E000FFF796BE002340681A461946FFF782BE71
:1095F000002240681146FFF76FBE00224068114606
:10960000FFF74EBE002202214068FFF757BE00233D
:1096100040681A46FFF736BE0322024B5A60024AE0
:109620001A60704744AE07103CF83F020B680360B5
:109630004B68436013B15A6801325A60704710B5E5
:10964000044608462170FFF7F7FC002320466360BC
:1096500010BD10B58368044613B103220146984734
:10966000204610BD02220020044B1A60044B054A1C
:10967000C3E900009A60FFF7B1BD00BF58AE071004
:109680004CAE07100000FFFF10B504460068FFF75E
:109690001FFF204610BD10B50446006808B1FFF753
:1096A00017FF0023C4E90133236010BD38B5044619
:1096B0000D4600680131FFF719FF10B1C4E900053C
:1096C000012038BD10B50368044623B143688B42BE
:1096D00001D3012010BD2046FFF7E8FF0028F9D094
:1096E000A368002BF5D122681370F2E737B50D4659
:1096F000114601920446FFF7E5FF019A28B920467A
:10970000FFF7C9FF204603B030BD2946A26020689C
:1097100005F06EF800212268A368D154F2E7002317
:1097200013B50446C0E900338360037341B10846B2
:109730000191FEF7C7FC019902462046FFF7D6FFCC
:10974000204602B010BD002310B50446C0E9003326
:109750008360037309B1FFF7C9FF204610BD38B518
:10976000054600680C4670B16A688B689A4208D357
:10977000096831B105F0B1F8A368AB600023A360BC
:1097800038BDFFF7A5FE23682B6063686B60A36894
:10979000AB600023C4E90033F1E7002310B50446B1
:1097A000C0E9003383600373FFF7D9FF204610BD83
:1097B000884210B5044605D00B682BB18A6819465B
:1097C000FFF794FF204610BDFFF765FFFAE700237F
:1097D00010B50446C0E9003383600373FFF7E8FF68
:1097E000204610BD884210B5044601D0FFF7B7FFF0
:1097F000204610BD13B5044659B108460191FEF745
:1098000061FC019902462046FFF770FF204602B036
:1098100010BDFFF740FFF9E7F8B5044616460F46BE
:1098200009B90020F8BD8AB1856815442946FFF7BB
:1098300049FF0028F5D0A36820683246184439460D
:1098400004F0D6FF002223685A55A5600120E9E7FD
:10985000002307B50122ADF804308DF8041001A9EA
:10986000FFF7DAFF03B05DF804FB02680B460968F6
:1098700062B141B9806860B110787047986840B1B2
:109880000978484270471046FEF712BC0029F5D10E
:109890000846704708B582688B689A4205D1FFF781
:1098A000E4FFB0FA80F0400908BD0020FCE708B5ED
:1098B00082683AB921B10878B0FA80F0400900E036
:1098C000012008BD006809B90078F5E7FEF7F0FB54
:1098D000F2E770477047704770470000064B10B5BD
:1098E000994200F10C0405D0084604F051FE00280E
:1098F00008BF0024204610BDCCFA3F02064B10B52D
:10990000994200F10C0405D0084604F041FE0028FD
:1099100008BF0024204610BDCCFA3F02064B10B50C
:10992000994200F10C0405D0084604F031FE0028ED
:1099300008BF0024204610BDCCFA3F0210B50446F3
:109940006821FEF7E8FB204610BD10B5044628212B
:10995000FEF7E1FB204610BD10B504463021FEF7AE
:10996000DAFB204610BD6821FEF7D5BB2821FEF7A3
:10997000D2BB3021FEF7CFBBF0B50025EC1C8C42EA
:109980000DD86E1C875D445D974205D12644B142D7
:1099900005D31D60601CF0BD01342544EEE70020B6
:1099A000F9E700000A20024A0249FFF7D1BB00BFD5
:1099B000B5953F0278F83F0230B40D4611461A467D
:1099C00003680968D3E900432868A44630BC6047AF
:1099D000012A38B5044602D10B68236003E0022A4D
:1099E00003D0032A0DD0002038BD08200D68FEF7F3
:1099F0008EFB03460028F0D095E8030083E80300BF
:109A0000EBE700680028EED00821FEF784FBEAE7C8
:109A100010B5836804462BB1032201469847002302
:109A2000C4E9023310BD10B5836804462BB103228C
:109A3000014698470023C4E9023310BD00232022C9
:109A400010B504468AB0CDE90223084A01200092ED
:109A5000074902AAFFF78AFB00232246206805492E
:109A600000880AB0BDE81040FFF726B99AF83F0217
:109A70008FF83F025DC03F0210B5013802EB410193
:109A800010F8013F02321B0903F13004392C88BF62
:109A900003F1370402F8024C037803F00F0303F1DB
:109AA0003004392C88BF03F13704914202F8014C8D
:109AB000E6D110BD10B504465830FFF7CAFD04F1D9
:109AC0004800BDE81040FFF7DFBD38B50368054624
:109AD0008B420C4608D011B14B6801334B602868AB
:109AE00008B1FEF769FB2C6038BDA0F13003DAB293
:109AF000092A01D818467047A0F16103052B01D847
:109B000057387047A0F14103052B94BF37384FF009
:109B1000FF307047002310B50370044B04461868EB
:109B2000FFF772F901232046237010BD60AE0710C5
:109B300010B5037804461BB1024B1868FFF772F9A1
:109B4000204610BD60AE071082B06A460346086822
:109B5000496803C26A4603CA18601846596002B0D1
:109B6000704708B582798B799A4206D1062204F0B3
:109B70002FFEB0FA80F0400908BD0020FCE700008D
:109B800070B50446384B86B018689B880090ADF8D5
:109B90000430364BA67918689B880290ADF80C30DB
:109BA0007EB906226946204604F012FE38B106222C
:109BB000204602A904F00CFE003818BF012006B0B0
:109BC00070BDA3882068ADF8143006F0FD03012BAA
:109BD000049024D19DF81550062205F03F056946F2
:109BE00004A88DF8155004F0F3FD00283AD065F074
:109BF0003F05062202A904A88DF8155004F0E8FDDF
:109C000080B36079012E00F0C00004D1C02814BFD9
:109C100000200120D3E7B0FA80F04009CFE7022E00
:109C20001ED103229DF815500DEB020105F03F05F2
:109C30000DF113008DF8155004F0CAFD90B165F0D8
:109C40003F0503220DF10B010DF113008DF81550A6
:109C500004F0BEFD30B1607900F0C0004028D6E7C6
:109C60000120ACE70020AAE738F53F02B6F83F0232
:109C70004FF0FF33036083800020704700210246CD
:109C800008B501604160FFF7F3FF1046917108BD10
:109C90000123024610B50361044B03F1100153F890
:109CA000044B8B4242F8044BF9D110BD3EF53F0204
:109CB0000B7C30B513F0FD030DD1024603610C4B54
:109CC00003F1100453F8045BA34242F8045BF9D19A
:109CD0000B88838130BD01230361034601F110022B
:109CE00051F8044B914243F8044BF9D1F2E700BF1D
:109CF0003EF53F0210B50B460446B1B1012A01F111
:109D000010020AD1014653F8040B934241F8040BA8
:109D1000F9D101232361204610BD411E12F8010D27
:109D20009A4201F8010FF9D1F3E7102204F087FD00
:109D3000F1E738B504460D46FFF7AAFF0023204699
:109D40002361A58138BD08B502690B699A4206D125
:109D5000102204F03DFDB0FA80F0400908BD00205B
:109D6000FCE7000001232DE9F341024606460361AA
:109D7000334B0C4603F1100153F8040B8B4242F8AD
:109D8000040BF9D144B32421204604F0E0FD04285B
:109D90004FF0000523D1ADF8045001AFA51C0634E7
:109DA00015F8020CFFF7A1FEB0F1000812DB15F860
:109DB000010CFFF79AFE00280CDB023540EA081080
:109DC000A54207F8010BEBD19DF8053033739DF8E0
:109DD000043073730023336102B0BDE8F0814FF0AB
:109DE00010082421204604F0B2FDA84207D84246BC
:109DF0000021304602B0BDE8F04104F020BDB8F1CA
:109E0000000FE9D0605DFFF770FE030615D4000176
:109E1000C7B208F1FF382421204606F8087004F084
:109E200096FD0135A84208D9605DFFF75EFE40B29D
:109E30000028A4BF384306F808000135D1E700BF69
:109E40003EF53F0213B504460191FFF721FF20467E
:109E50000199FFF787FF204602B010BD10B500F151
:109E60000F0301391C78834201F8014F03F1FF33DE
:109E7000F8D110BD2DE9F0411F460D468EB00029E6
:109E80005BD0DAB1D0F81080541EB8F1000F19D1B0
:109E9000838902215BBA05AA01A8ADF80430CDF888
:109EA0001480FFF7E9FD042C28BF0424284622462D
:109EB00005A904F09DFC621C05F8048010460EB054
:109EC000BDE8F08101A9FFF7C9FF05AA7FB1102104
:109ED00001A8FFF7D1FD242C28BF242428462246C0
:109EE00005A904F085FC0023621C2B55E6E704213C
:109EF0002D260DEB0100FFF7BFFD02210DF11D0224
:109F000002A88DF81C60FFF7B7FD02210DF12202B7
:109F10000DF10A008DF82160FFF7AEFD02210DF171
:109F2000270203A88DF82660FFF7A6FD06218DF80D
:109F30002B600BAA0DF10E00CBE70A46BEE710B569
:109F400004468AB00023252208466946FFF792FF9F
:109F500069462046FFF7E3FB20460AB010BDF7B57F
:109F6000054616461F460A46D0E9000101ABFFF739
:109F700003FD30F002040CD0841EBC4228BF3C46D6
:109F80003EB101992B68023122463046194404F053
:109F90002FFC204603B0F0BD37B513460C460192A6
:109FA0000A4608210546FFF7DAFF40B92246092193
:109FB0002846019B03B0BDE83040FFF7D0BF03B097
:109FC00030BD0000F0B50C4689B00C490546FFF7DE
:109FD000A6FB1F2269462046FFF7DEFF064650B16A
:109FE0006C460027284614F8011BFFF731FC10B11E
:109FF0000137BE42F6D1284609B0F0BD49FB3F0209
:10A0000007B50223192101AAFFF7A9FF08B1BDF87E
:10A01000040003B05DF804FB38B54FF6FF7300256C
:10A02000044643800E22294605700571063004F06F
:10A0300006FC04F11400FFF72BFE04F12800FFF7E3
:10A0400027FE044904F13C00FFF769FB20466565E3
:10A0500038BD00BF49FB3F0238B50D6804460146D4
:10A0600005F12800FFF76FFE40B1AB89A28A9A4242
:10A0700005D8E08A984234BF0020012038BD002076
:10A08000FCE710B5D0E9063203EBC2029342184652
:10A0900005D00468083324888C42F7D110BD002015
:10A0A000FCE70000002370B5036005466820FEF75A
:10A0B0002EF8041E04F10C0607D00123C4E9013375
:10A0C000044B30462360FFF7A7FF2846C5E900642C
:10A0D00070BD00BF80FA3F0270B5054606460C68A9
:10A0E00014340FCC0FC5236830462B6070BD0000C0
:10A0F000F0B506461F460D4685B0002950D0002A0F
:10A100004ED00468F42A237828BFF42243B323797D
:10A11000980709D50023A0890392FEF7BFFD002808
:10A12000039A03DA05B0F0BD6FF077003468237945
:10A13000D90609D5012F07D000232946A08905B0EB
:10A14000BDE8F040FEF728BE9B06EBD5022FE9D014
:10A1500000232946A08905B0BDE8F040FEF72ABEDD
:10A160004FF6FF71608888421CD021794E0701D5D7
:10A17000012F04D10B0709D46FF07700D2E7A18932
:10A18000009313462A46FEF7C1FDCBE7022FF3D01A
:10A190000023A189009313462A46FEF7A9FDC1E7D3
:10A1A0000248BFE76FF0D100BCE700BFF2FEFFFF3F
:10A1B00037B50C460546F4212046019204F0C7FB52
:10A1C000214602462846019B03B0BDE83040FFF718
:10A1D0008FBF000010B5036886B01A7852BB4FF6E7
:10A1E000FF705C88844225D0188A30B3CDE9032201
:10A1F0000592134A0092134ACDE901235A88ADF81B
:10A200000C201A8AADF80E209A89ADF8102059B1A9
:10A210001A79920644BF022205921B79DB0642BFDF
:10A22000059B43F00103059300216846FEF7A6FD58
:10A2300006B010BD6FF0D100FAE76FF07700F7E7D6
:10A2400003001800D9AD3F02F8B5002605460660A8
:10A250002820FDF75CFF041E04F10C070AD001233F
:10A26000C4E90133054B38462360FFF711FD266230
:10A2700084F824602846C5E90074F8BD9CFA3F02C2
:10A2800070B50025064605603020FDF740FF044606
:10A2900098B10123C0E901330A4B0E3040F80E3C5F
:10A2A0004FF6FF7320F8023CFFF7E8FCC4E90655BF
:10A2B000C4E90855C4E90A55A57574600C343046E4
:10A2C000346070BDB8FA3F02036818884FF6FF7318
:10A2D000C01A18BF0120704737B50C46054601A8C3
:10A2E000FFF718FC23682A6801A8C2F802306368E7
:10A2F000C2F80630FFF71CFC03B030BD37B50D4681
:10A30000044601A8FFF706FC2A6801A8D2F802302B
:10A310002360D2F806306360FFF70AFC204603B0E2
:10A3200030BD30B505460C4687B001A8FFF7F2FBFB
:10A330002A68236812881B889A420DD1294602A8F0
:10A34000FFF7DCFF214604A8FFF7D8FF04A902A805
:10A35000FFF707FC044600B9002401A8FFF7E8FB5B
:10A36000204607B030BD000070B506467420FDF7EA
:10A37000CEFE0446A0B10025C0E90055C0E9025553
:10A38000C0E90455C0E9065505622430FFF778FF9F
:10A3900004F12C00FFF774FFE563E564E565E5660D
:10A3A000346024B90A200A4A0A49FEF7D1FE002087
:10A3B000FEF73CFC20B10A20054A0749FEF7C8FE1B
:10A3C000002231680548FEF7CBFC304670BD00BF67
:10A3D000B5953F0278F83F02BDF83F0279BB3F02D6
:10A3E00010B50A4CD4E88F3FDB070CD42046FDF7AC
:10A3F000A1FE40B10648FFF7B7FF2046FDF79FFEDC
:10A40000044804F0D7F9024810BD00BF5CAE071045
:10A4100064AE0710D5B03F0230B503680446093B6F
:10A42000012B0D468DB011D8FFF7DAFFA188006827
:10A43000FFF727FE034658B92022CDE904200B4A36
:10A44000322000920A4904AAFEF790FE0DB030BDFA
:10A450006A6D002AFAD0D4E9032105F14C00CDE958
:10A460000312AC6D04AA03A9A047EFE7FFF83F026F
:10A470008FF83F0208B50020FEF7D8FB00EAE07035
:10A4800008BD000070B504460E4615461830FFF7AB
:10A49000BFFA04F12800FFF7C6FA00222146C4E9FA
:10A4A00003650348FEF7D0FB0028A8BF606970BDB4
:10A4B00065C83F0210B504464069FFF709F8A06877
:10A4C000FFF706F8204610BD002247F67F71C0E96D
:10A4D0000022C0E90222C0E90422C0E90E22C0E93C
:10A4E0001022C0E91222C0E91422C0E91622C0E9F4
:10A4F0001822C0E91B22C0E91E2202620263A0F8F2
:10A50000681080F87420C0F88020704770B5044649
:10A51000D0E9005305EB0316AE4204D02846FFF7FE
:10A52000B3F81035F8E72068FEF7D2FF204670BD7B
:10A5300010B504460068FEF7CBFF204610BD70B58D
:10A5400004462426806FFEF7C3FFE06DFEF7C0FFD0
:10A55000206DFEF7BDFF04F1380504F14400FFF75C
:10A56000E7FF2846FFF7D2FF04F12800FFF771F854
:10A5700004F11800FFF76DF8D4E9005306FB035609
:10A58000AE4204D02846FFF795FF2435F8E720684F
:10A59000FEF79EFF204670BD30B515460C46A3B0B1
:10A5A00079B172B101A8FFF78FFF21462A4601A8B1
:10A5B000FFF768FF044601A8FFF7C1FF204623B05C
:10A5C00030BD014CFAE700BFF2FEFFFF38B5141EA4
:10A5D0000546436802DB62189A4200DD5C1A2A686D
:10A5E000501801191A44521A04F00FF96A68121B24
:10A5F0006A6038BD38B500230446836008200D46E4
:10A60000FDF785FD18B12B6803606B684360034B51
:10A610002060E360024B2046A36038BD79A33F026F
:10A6200091A33F020B68036013B15A6801325A606C
:10A63000704710B5044651F8043B40F8043BFFF75F
:10A64000F1FF23680BB9FFF7ADF9204610BD10B537
:10A65000044651F8043B40F8043BFFF7E3FF204673
:10A6600010BD10B5044651F8043B40F8043BFFF719
:10A67000D9FF204610BD10B504460430FEF72AF875
:10A68000204610BD10B504460430FEF723F82046DE
:10A6900010BD70B50446D0E9005305EBC306AE42C9
:10A6A00004D0281DFEF716F80835F8E72068FEF7F5
:10A6B0000FFF204670BD70B50446D0E9005305EB8E
:10A6C000C306AE4204D0281DFEF704F80835F8E7AB
:10A6D0002068FEF7FDFE204670BD10B5044624300C
:10A6E000FFF7E9FF04F11800FFF7D3FF10BD70B5C5
:10A6F0000446D0E9005305EBC306AE4204D0281D42
:10A70000FDF7E8FF0835F8E72068FEF7E1FE204690
:10A7100070BD000010B5164B1C6844B304F1640012
:10A72000FEF797FF04F15400FEF793FF04F1440095
:10A73000FEF78FFF04F13400FEF78BFF04F13000C9
:10A74000FDF7C8FF04F12800FDF7C4FF04F118006D
:10A75000FFF7CDFF04F10C00FFF7ADFF2046FFF738
:10A7600098FF2046BDE810407421FDF7D4BC10BD11
:10A7700064AE071073B54FF6FF76036804461B8876
:10A78000B3422AD0FFF72CFE23680068C3626168D9
:10A790003030FFF79AF9236800211888FEF770FA25
:10A7A000051E08DB6846FFF7B5F9236868461E807A
:10A7B000FFF7BEF900256846FFF762FDFFF710FEC0
:10A7C000009B0068C36201993030FFF77EF901A851
:10A7D000FDF780FF284602B070BD6FF0D105F9E7A4
:10A7E000826810B50AB903F0CFFEC368BDE8104017
:10A7F000184700232DE9F047C0E900338360D1F802
:10A800000480054698450F464ADD4FEA0810FEF7DA
:10A8100051FE0646002843D0D5E90041A04204EB92
:10A82000011A16D9504515D2AAF1100AA4F110093F
:10A83000AAEB04040444D1451DD01CB15146204666
:10A84000FEF7ABFF5046FEF71FFFAAF1100A103CBF
:10A85000F1E710D0B146A2450DD0B9F1000F03D0F9
:10A8600021464846FEF799FF2046FEF70DFF1034BB
:10A8700009F11009EFE72868FEF72AFEC5F80880FD
:10A880002E60D7E9004304EB0318A04506D021460B
:10A890003046FEF79CFF10341036F6E77B686B609D
:10A8A0002846BDE8F08730B58DB00C4600F1380180
:10A8B00001A8FFF79EFF029B002B2FDD04F114017E
:10A8C00004A8FFF77FFB04F1080108A8FFF77AFB53
:10A8D0000A9A069B13431FD0DDE9014504EB0515D9
:10A8E000AC4219D0204604A9FEF7D4FF60B1012480
:10A8F00008A8FEF7C9FE04A8FEF7C6FE01A8FFF7E8
:10A9000005FE20460DB030BD204608A9FEF7C2FF67
:10A9100010340028E4D0EAE70024E9E70124EDE759
:10A9200070B504460020C4E90000A0604E680D46E2
:10A93000864212DD7100FEF7D9FD70B12060A6607D
:10A94000D5E9003203EB42029A4204D033F8021BED
:10A9500020F8021BF8E76B686360204670BD10B5F5
:10A960000379044623B90368186808B1FEF7B0FDFF
:10A97000204610BD10B50379044623B90368186852
:10A9800008B1FEF7A5FD204610BD00002DE9F043FB
:10A99000D0F86C800F468FB0B8F1000F72D0056F01
:10A9A000002D6FD001F114091F230022FF2148461A
:10A9B000FFF7D5FA083704461F230022FF21384647
:10A9C000FFF7CDFAAC42064606D0AE4230D00024A6
:10A9D00020460FB0BDE8F0832046FEF76BFD03ABC9
:10A9E00004930023044603908DF8143070B920239B
:10A9F000CDE90630244B2549009306AA03463220B0
:10AA0000FEF7B4FB04A8FFF7AAFFE1E70246FF2127
:10AA10002B464846FFF7A3FA2A464146039803F01F
:10AA2000D7FE18B104A8FFF79AFFCEE70124E9E7A3
:10AA30002846FEF73FFD002403AB0646039004932F
:10AA40008DF8144078B92023CDE906300E4B0F491C
:10AA5000009306AA03463220FEF788FB344604A87A
:10AA6000FFF788FFB4E70246FF212B463846FFF781
:10AA700076FA2A464146039803F0AAFE0028EED152
:10AA80000124ECE70124A3E717F93F028FF83F0206
:10AA900038B50D1E0446006803DDFEF727FD18B922
:10AAA00038BDFEF715FD00202060A5600120F7E706
:10AAB00008B583688B4202DAFFF7EAFF08BD012080
:10AAC000FCE738B50023C0E9003383600D464968D0
:10AAD0000446994210DDFFF7DBFF68B1D5E900318C
:10AAE00022681944994205D00AB1187810700133D0
:10AAF0000132F7E76B686360204638BD38B504461D
:10AB00000D460B68083040F8083C4B68083140F8A7
:10AB1000043CFFF7D6FF05F1140104F11400FFF720
:10AB2000D0FF95F82030204684F8203038BD1FB57E
:10AB3000044601A8FFF7C5FF019B029A2068236025
:10AB400063686260039A0293A368A2600190039312
:10AB5000FEF7BEFC04B010BD2DE9F0410F46416880
:10AB60001D461944836804469942904612DC2668C3
:10AB700062683E443146D21B701903F046FE2A46F5
:10AB80004146304603F034FE012063682B44636085
:10AB9000BDE8F081FFF77CFF0028E8D1F8E7134615
:10ABA0000A46002110B50446416002B10BB90020ED
:10ABB00010BD1F2B28BF1F23FFF7CEFF0028F7D0A3
:10ABC0006068F5E7F8B50D46D0E9011399420446EF
:10ABD00016460BDA276862687919521B481C03F085
:10ABE00014FE7E55636801336360F8BD0131FFF7E1
:10ABF0004FFF0028EED1F8E70A464168FFF7E2BFB1
:10AC00002DE9F74304461D460F4601AB90460A4620
:10AC1000D0E900019DF82890FEF7AEFEAE1C02467A
:10AC20006368B9F1000F26D128B333441B1A1F2BD8
:10AC300009D820460199FFF7C9FC616820463144D4
:10AC4000FFF736FF18B9606803B0BDE8F0836A1CEF
:10AC500020460199D2B2FFF7B5FF01993A4601317A
:10AC60002046FFF7AFFF2B464246019902312046AE
:10AC7000FFF772FFE7E7F1181F2911D82046FFF709
:10AC800017FF0028DFD0691C2046C9B2FFF7B4FFC8
:10AC900039462046FFF7B0FF2B4642466168E6E79B
:10ACA0006FF0BD00D0E730B49DF808501AB102959E
:10ACB00030BCFFF7A5BF406830BC70471FB500230C
:10ACC0000622C0E9003383600093012304468DF817
:10ACD0000F2019460DF10F02FFF7E5FF204604B0E3
:10ACE00010BD8842F8B504460D46164614D9904268
:10ACF00013D2A2F10806751AA1F108072C44B74235
:10AD000018D01CB131462046FFF7ABFC301DFDF7D3
:10AD1000E1FC083E083CF2E70CD0B5420AD01CB179
:10AD200029462046FFF79DFC281DFDF7D3FC08357A
:10AD30000834F2E7F8BDF8B50546D0E900430F4600
:10AD400004EBC306A64205D039462046FFF7E9FAD0
:10AD500008B114B9F8BD0834F4E7201DFDF7BAFCBA
:10AD6000D5E90032204603EBC20204F10801FFF7E7
:10AD7000B8FF6B68013B6B60ECE738B50D1E04460D
:10AD8000006805DD14216943FEF7B0FB18B938BD32
:10AD9000FEF79EFB00202060A5600120F7E72DE96B
:10ADA000F8430024C0E900448460884649680746A7
:10ADB000A1421CDDFFF7E1FFC8B1D8E900934FF0D5
:10ADC000140C0CFB039CD7F800E009EB0405AC4520
:10ADD0000AD01EEB04061EBF0FCD0FC62B6804F170
:10ADE000140418BF3360F0E7D8F804307B603846AD
:10ADF000BDE8F8832DE9F84345688368D1E9008709
:10AE0000E9199942044617DC142362685D4303FB89
:10AE100007F95A432668521B2E44314606EB0900B7
:10AE200003F0F3FC4A464146304603F0E1FC636818
:10AE30003B446360BDE8F883FFF79FFF0028E3D140
:10AE4000F8E782B070B50C4604A981E80C00D0E99F
:10AE500001139942054617DA14236A6803FB04F1CB
:10AE60005A432C68521A0C442146E01804AE03F0F1
:10AE7000CCFC0FCE0FC4336823606B6801336B606A
:10AE8000BDE8704002B070470131FFF776FF00283F
:10AE9000E2D1F5E72DE9F04F002405460F46904634
:10AEA000931EC0E9004493B0DBB2846005937968D7
:10AEB0008C4272DA3868424607AB091B2044FEF721
:10AEC0005BFD0646002868D0059B012B2FD84FF06C
:10AED0000009A0F1020B4FEA5B0B0DF13C0A079B46
:10AEE000CB45234455D03A6803EB49031344D97842
:10AEF0009B7808A843EA0121FEF71BFF0DF1340CF3
:10AF00000DF1200EBEE80F00ACE80F00DEF80030B7
:10AF100009F10109CCF800309AE807008DE8070034
:10AF20000DAB28460CCB6968FFF78BFFD7E7A8F17C
:10AF30000603012B2DD84FF00009A0F1020B4FEAB8
:10AF40001B1B0DF13C0ACB45079B22D0023339680D
:10AF5000234403EB09130122194408A8FEF7CAFE93
:10AF60000DF1340C0DF1200EBEE80F00ACE80F001F
:10AF7000DEF8003009F10109CCF800309AE807004A
:10AF80008DE80700DDE90D2328466968FFF759FFC2
:10AF9000D9E7079B1C44344489E7284613B0BDE831
:10AFA000F08F002330B504460D4685B0C0E900336C
:10AFB0008360022201A8FFF76DFF01A92046FFF779
:10AFC00019FF01A8FFF7B4FA0222294601A8FFF7EA
:10AFD00061FF01A92046FFF70DFF01A8FFF7A8FABE
:10AFE0000322294601A8FFF755FF01A92046FFF7D4
:10AFF00001FF01A8FFF79CFA0622294601A8FFF7E6
:10B0000049FF01A92046FFF7F5FE01A8FFF790FAD6
:10B010000722294601A8FFF73DFF204601A9FFF7B7
:10B02000E9FE01A8FFF784FA204605B030BD2DE9FE
:10B03000F04385B08846014601A89146FFF7B1FF6D
:10B040004FF0140E0027019E029B0EFB036CB445CB
:10B050000DD0B94506F1140609D00EFB0784A6F100
:10B0600014050FCD0FC42B6801372360EFE701A84B
:10B07000FFF75EFA384605B0BDE8F0832DE9F04FE2
:10B080008BB00C4600F1440101A8FFF788FE029B3B
:10B09000002B4ADD04F1140104A8FFF782FF04F13C
:10B0A000080107A8FFF77DFF059D089E002D01DC24
:10B0B000002E38DD1423019A029F9246DDF810809D
:10B0C000DDF81C9003FB072703FB058503FB0696B1
:10B0D000BA4528D0C346AB4515D059465046FEF771
:10B0E00032FE0BF1140B04460028F4D007A8FFF73A
:10B0F0001FFA04A8FFF71CFA01A8FFF719FA204667
:10B100000BB0BDE8F08FCB46B34509D05946504649
:10B11000FEF719FE0BF1140B04460028F4D0E5E706
:10B120000AF1140AD4E70024E0E70124E4E770B54B
:10B130000E1E054611DDF000FEF7BCF9044658B1BD
:10B14000D5E9001201EBC202FFF7CBFD2868FEF73C
:10B15000BFF901202C60AE6070BD0024F6E773B526
:10B16000044645686846FFF77CFAD4E90113994222
:10B1700010DA2368626803EBC505294603EBC202B7
:10B1800005F10800FFF7ADFD8DB9636801260133B5
:10B19000636006E020460131FFF7C9FF064600283C
:10B1A000E7D101A8FDF796FA304602B070BD6946B6
:10B1B0002846FFF756FAE8E72DE9F041054690B03A
:10B1C00005A80C46FEF7A6FC2E68F31E0D2B6AD8C8
:10B1D000DFE813F00E0078006900FE0069006900E6
:10B1E000690069006900C800C800C800C800C8003C
:10B1F000606A04F118060230FEF7C2FC38B321463B
:10B20000AA8951F8243F08A81A80FFF72AFA08A94A
:10B210003046FFF7A4FF09A8FDF75CFA08A8FFF77E
:10B220002FF8089B04F1280009996362FEF74DFC92
:10B2300009A8FDF74FFA20210023CDE908136E4A33
:10B24000009201206D4908AAFDF790FF2BE006A8A7
:10B25000FFF716F8AA89069B1A80696806980831D4
:10B260000230FEF771FC06A908A8FFF7FAF930468C
:10B2700008A9FFF774FF054609A8FDF72BFAC5B921
:10B280002023CDE908355E4B01205C49009308AAD4
:10B290002B46FDF76BFF069B29461888FDF7F0FC4F
:10B2A00007A8FDF717FA05A8FEF742FC10B0BDE8A5
:10B2B000F081E36B23B106A904F13400FFF790FAA3
:10B2C00007A8B6E7A9892046FEF7DBFE014600285D
:10B2D000E9D0039004F12C00FFF723F804F11807DC
:10B2E000039940B13846FFF726FD20220023CDE91F
:10B2F0000823444AA4E74FF6FF700D68D5E90632EB
:10B30000288003EBC2029A4203D053F8086B708086
:10B31000F9E7D5E9036306EBC308B04506D0301D55
:10B3200003910836FDF7D6F90399F6E700232B6160
:10B33000D5E9066306EBC308B04506D0301D03917E
:10B340000836FDF7C7F90399F6E70023EB61AB7206
:10B35000E36C002BC6D004F144000391FFF740FAE0
:10B360000399BFE72046A989FEF78BFE00289AD0F3
:10B37000E36D002B97D000230D2EADF81E3001D0C9
:10B38000102E17D1002369681A4606258DF81D3046
:10B3900006910BAB8DF81C2008908DF82460DDE938
:10B3A00006010A9583E80300236E08A904F15400FE
:10B3B000984778E70F2E01BF2B7A696803F00102E6
:10B3C00008251DBF1A4619461D46C3F34003DDE795
:10B3D000A9892046FEF755FE014600283FF463AFD9
:10B3E000E36E002B3FF45FAF6B6808AA089304F18B
:10B3F0006400236F984756E758F93F028FF83F02E1
:10B4000032F93F0262F93F0213B56C460B46024621
:10B41000D0E9000184E8030093E8030082E8030018
:10B4200094E8030083E8030002B010BD38B5054678
:10B430000C46FFF7E9FFAB68A268AA60A360EB685F
:10B44000E268EA60E36038BD002330B585B002935E
:10B450008B6805460C4633B1022268469847E3687C
:10B460000393A368029329466846FFF7DFFF684607
:10B47000FEF7EFF805B030BD38B50D46016804465B
:10B480004B6D23B128684C314C30FFF7DDFF20466F
:10B490002B6840F8043B6968FEF717FB204638BD6F
:10B4A0002DE9F043044687B068460E461746FEF77E
:10B4B00031FB2368D3E9064304EBC3084445A146A6
:10B4C00016D0214601A8FEF707FE394601A8FEF76F
:10B4D0003AFC083405460028F0D049463046FFF7CC
:10B4E000CBFF6846FEF724FB284607B0BDE8F08393
:10B4F0000025F6E710B504688AB0C1B1CDE90012A5
:10B5000002A86946FFF776F8002306A902A8089367
:10B51000FFF78CFF04F14C0106A8FFF787FF06A890
:10B52000FEF797F802A8FEF794F80AB010BD049150
:10B53000EAE78842F8B504460D46164614D990420B
:10B5400013D2A2F10806751AA1F108072C44B742DC
:10B5500018D01CB131462046FFF779F8301DFDF7B1
:10B56000B9F8083E083CF2E70CD0B5420AD01CB14D
:10B5700029462046FFF76BF8281DFDF7ABF8083584
:10B580000834F2E7F8BD70B50E1E054611DDF00077
:10B59000FDF790FF044658B1D5E9001201EBC20255
:10B5A000FFF7C7FF2868FDF793FF01202C60AE600E
:10B5B00070BD0024F6E700232DE9F041C0E9003317
:10B5C00083600D4649680446994213DDFFF7DBFFAF
:10B5D00080B1D5E90063276806EBC308B04507D002
:10B5E0001FB131463846FFF732F808360837F5E71D
:10B5F0006B6863602046BDE8F08137B50D460446B0
:10B6000001A8FEF787FA296820460C31FFF7D3FF1F
:10B6100001A8FEF78DFA204603B030BD38B50B689F
:10B6200005469B7A0C4633B90846FEF707FA10B96F
:10B63000012223689A7228462146FFF7DEFF28463A
:10B6400038BD73B5044645686846FFF700F8D4E98D
:10B650000113994210DA2368626803EBC505294695
:10B6600003EBC20205F10800FFF763FF8DB96368C1
:10B6700001260133636006E020460131FFF783FFB6
:10B6800006460028E7D101A8FDF724F8304602B0AD
:10B6900070BD69462846FEF7DAFFE8E72DE9F04F6E
:10B6A000054688460027DFF8B490DFF8B4A093B0D1
:10B6B0002B68BB424ED91C2603A8FEF7C5FD0DF131
:10B6C000140CE3467E436A68039C3244131D143213
:10B6D000E646186859680833AEE803009342F4461A
:10B6E000F6D118685946CEF800000AA8FEF7E0FA2D
:10B6F0000DF1280CBCE80F000FC4DCF80030039AF1
:10B7000023606B6803A933441B8B93826B683344BB
:10B710005B8BD382D8F8000000F10C040AA8FEF776
:10B7200096FF20460AA9FFF78CFF04460BA8FCF7FA
:10B73000D1FF54B920235146CDE90A3432202346A3
:10B74000CDF800900AAAFDF711FD04A8FCF7C2FF8E
:10B750000137ADE713B0BDE8F08F00BF6FF93F02CE
:10B760008FF83F028842F8B504460D46164614D9B4
:10B77000904213D2A2F10806751AA1F108072C44D1
:10B78000B74218D01CB131462046FEF752FF301D9B
:10B79000FCF7A0FF083E083CF2E70CD0B5420AD007
:10B7A0001CB129462046FEF744FF281DFCF792FFF6
:10B7B00008350834F2E7F8BD70B50E1E054611DDF8
:10B7C000F000FDF777FE044658B1D5E9001201EB11
:10B7D000C202FFF7C7FF2868FDF77AFE01202C6040
:10B7E000AE6070BD0024F6E700232DE9F041C0E90A
:10B7F000003383600D4649680446994213DDFFF724
:10B80000DBFF80B1D5E90063276806EBC308B045CC
:10B8100007D01FB131463846FEF70BFF0836083710
:10B82000F5E76B6863602046BDE8F08137B50D46EB
:10B83000044601A8FEF76EF9296820461831FFF783
:10B84000D3FF01A8FEF774F9204603B030BD73B5ED
:10B85000044645686846FEF7ECFED4E901139942B8
:10B8600010DA2368626803EBC505294603EBC202C0
:10B8700005F10800FFF776FF8DB9636801260133F3
:10B88000636006E020460131FFF796FF0646002878
:10B89000E7D101A8FCF71EFF304602B070BD694633
:10B8A0002846FEF7C6FEE8E7F0B585B0054601A8D4
:10B8B0000C461746FEF72EF90023C5E90033AB60AE
:10B8C0002368D3E9064604EBC606B44211D02146EC
:10B8D0003868FEF7C1FB50B1214602A8FEF7A9FE69
:10B8E000284602A9FFF7B3FF03A8FCF7F3FE0834CC
:10B8F000EBE701A8FEF71CF9284605B0F0BD0000F3
:10B900002DE9F0430B6806469B7A0F46904691B0AE
:10B9100033B9C0E900338360304611B0BDE8F0832D
:10B9200011680D7E002D58D120232A4603A8CDE9A9
:10B930000835FEF704FB039B2B4901932B4B08AA08
:10B94000012000932B46FDF711FC03A8FDF79CFE98
:10B950001C23ADF82230D8F8003008A99A8AADF837
:10B960003820DB8A224AADF83A303B6818880095C7
:10B97000FDF7B0F9002830DB3B68D3E9064304EB60
:10B98000C3090834A4F10803994522D054F8083CAF
:10B99000DB89002BF5D0102200210DEB020003956E
:10B9A00002F04DFF54F8083C03AAD9893B68188877
:10B9B00013230095FDF7B8F90028E2D010AB184426
:10B9C00000F8345C54F8080C03A93C30FDF712FF72
:10B9D000D7E70122D8F800301A7642463946304679
:10B9E000FFF762FF98E700BF8FF83F0294F93F022C
:10B9F00075C53F02F0B50B6806469B7A0D4685B0CB
:10BA00002BB901A8FFF70AFE01A8FEF742FE2B683A
:10BA1000D3E9034704EBC707BC4209D022462946B5
:10BA200001A8FFF76DFF01A8FEF745FE0834F3E714
:10BA300030462946FFF7FAFE304605B0F0BD00005B
:10BA40002DE9F0414FF000081F464B4B92B00546E0
:10BA50000C460868496804930AAE05AB079203C612
:10BA600083E80300CDE90888FEF7BAFC434B0AAE31
:10BA70000893FEF7B5FC0368214628460993FEF7B4
:10BA80002BFCFEF7ADFC2B68006843626968283028
:10BA9000FEF71BF84246296804A8FDF753F904464F
:10BAA000B0B14FF6FF722B681A803046FEF7E8FB04
:10BAB000FEF796FC0A9B006843620B992830FEF75C
:10BAC00004F80BA8FCF706FE204612B0BDE8F08192
:10BAD00003A8FEF71FF8FEF783FC2B68006819889F
:10BAE000FEF7CFFA4FF0200818BB254B254F324602
:10BAF0002549322000932346CDE90A84FDF736FB21
:10BB00003868FDF78FF92B688DF80C4021461888AE
:10BB1000FDF7B6F83868FDF777F901234FF6FF72A5
:10BB20008DF80C302B6803A81A80FEF701F8174C2B
:10BB3000BBE703A8FDF7FCFF154B3246009301203D
:10BB400023461149CDE90A84FDF710FB002FACD044
:10BB500029463046FFF74EFFDDE90A5305EBC307E0
:10BB6000BD4205D028460121FEF734FB0835F7E732
:10BB70003046FEF7A0FD98E70300180079BB3F02AE
:10BB8000C6F93F0260AE07108FF83F02FCFEFFFFD0
:10BB9000E2F93F0213B50446CDE90032FEF770FB2F
:10BBA00000222046009B0199FFF74AFF204602B081
:10BBB00010BD00002DE9F04F2023002695B0CDE9FF
:10BBC0000C36664B054600930F4633460120644908
:10BBD0000CAAFDF7CBFADFF88C91DFF88481DFF84F
:10BBE00088A12B68B34240F2B5804FF02A0B03A81E
:10BBF0000BFB06FBFEF756FA05A8FEF725FB6B6864
:10BC0000039A5B44D98B1181198C5181598C918194
:10BC1000988CD081D88C10821B8D5382D7E9033247
:10BC200003EBC2029A427DD01868C48A8C4277D353
:10BC3000848A8C4274D85968059006A8FDF745FFA0
:10BC4000DDF80CE0DDF814C00EF12804BCE80F00AC
:10BC50000FC4DCF8003023602B89AEF802306B682B
:10BC6000039C5B445B7E13F0020F6ED16B685B44F8
:10BC70005B7E580742BF237943F0040323716B684E
:10BC80005B445B7E190742BF237943F008032371AD
:10BC90006B685B445B7EDA0607AA964642BF23794F
:10BCA00043F0100323716B685B445B7E9B0642BFCD
:10BCB000237943F0200323716B689B440BF1040349
:10BCC0000BF1140B9446186859680833ACE803006C
:10BCD0005B456246F6D118687146CCF800000CA8A6
:10BCE000FDF7E6FF14340DF1300CBCE80F000FC473
:10BCF000DCF8003003A923600CA8FEF79AFC0CA91D
:10BD000007F11800FFF7A3FD04460DA8FCF7E2FCBD
:10BD10009CB92023CDF800A0CDE90C34234607E0E0
:10BD200008337FE720240023CDE90C43CDF80090B1
:10BD3000414632200CAAFDF719FA06A8FCF7CAFC06
:10BD400004A8FCF7C7FC01364BE7237943F0020354
:10BD500023718BE715B0BDE8F08F00BFFFF93F02FC
:10BD60008FF83F021AFA3F0249FA3F028842F8B5BB
:10BD700004460D46164614D9904213D2A2F1240669
:10BD8000751AA1F124072C44B74218D01CB13146D2
:10BD90002046FEF7B3FE3046FEF78CFB243E243CE3
:10BDA000F2E70CD0B5420AD01CB129462046FEF776
:10BDB000A5FE2846FEF77EFB24352434F2E7F8BDC5
:10BDC000F8B50E1E054613DD242707FB06F0FDF728
:10BDD00071FB044658B1D5E9001207FB0212FFF7C8
:10BDE000C5FF2868FDF774FB01202C60AE60F8BD2C
:10BDF0000024F6E7884210B510D990420FD2083AD5
:10BE0000A1F10804511A0844944212D018B11368E1
:10BE1000036053684360083A0838F5E709D0914257
:10BE200007D018B10B6803604B68436008310830D5
:10BE3000F5E710BD70B50E1E054611DDF000FDF7EB
:10BE400039FB044658B1D5E9001201EBC202FFF7F5
:10BE5000D1FF2868FDF73CFB01202C60AE6070BD6F
:10BE60000024F6E738B50023C0E9003383600D46AF
:10BE700049680446994213DDFFF7DCFF80B1D5E93C
:10BE80000031226803EBC101994207D01AB118684A
:10BE900010605868506008330832F5E76B686360DB
:10BEA000204638BD2DE9F04F91F874309DB007461B
:10BEB0000C4613AD00F11009002B40F0BB80D4E913
:10BEC0001E6A2B460069D9F804104FEACA0803C35A
:10BED00006EBCA0BB34500F0868031462846FDF7D5
:10BEE00040FE08360028F5D01DB0BDE8F08F4FF0B9
:10BEF0000108E4E04FF00008E1E000270DE1276BC6
:10BF00003FB1636931460133636104F12800636B1B
:10BF100018E1D4F80CC0BCF1000F26D0D4E90423FA
:10BF2000934280F010812422534332460CEB0305E8
:10BF300003CA4CF80300696005F1080003A9FEF785
:10BF4000F6FD06A905F11400FEF7F1FD9DF9243078
:10BF500085F8203063692269013393426361C0F040
:10BF6000F2803846FCF77EFEEDE00DF1280896E8F9
:10BF7000030088E8030003A90CA8FEF7A2FD06A9A8
:10BF80000FA8FEF79EFD9DF82430414628468DF807
:10BF900048306768FEF7B2FDD4E90113994210DA20
:10BFA00024222368616802FB073702FB013207F194
:10BFB00024003946FFF7DAFE87B96368013363600E
:10BFC00005E020460131FFF7FBFE0028E8D12846B6
:10BFD000FEF770FA4046FEF76DFAB4E0294638469F
:10BFE000FEF78CFDE9E73869D9F804100AAB03C302
:10BFF000D4F8803085E803009A4506DB0AF1010198
:10C0000004F17800FFF716FFA0B1D4F878B0E26F22
:10C010000BEB080631460BEBC20206F10800FFF7F6
:10C02000E9FE26B12B4603CB4BF83A007160E36F73
:10C030000133E36701AE3046FDF720FE03A8FEF7AB
:10C040003DFE06A8FEF73AFE2B463869D9F80410E3
:10C05000FA8903C33B7886E80300B96806A88DF81F
:10C060002430FEF79CFDBA89796803A8FEF797FD96
:10C0700094F968307F2B03D09DF924209A4262DB2B
:10C0800094F969307F2B03D09DF924209A425ADC21
:10C09000284604F15001FFF7E5FE149B002B7FF7C3
:10C0A00026AF139F07EBC309B9453FF423AF3846CA
:10C0B0003146FDF756FD083780460028F4D0139826
:10C0C000FDF706FAB8F1000F3DD031462046FEF7E5
:10C0D000EAFB002837D031462046FEF7CFFF07465F
:10C0E00088B3284604F15C01FEF71AFC149B002B70
:10C0F00013DD06A8FDF784FF804603A8FDF780FF47
:10C10000DDE9133203EB42029A423FF4F6AE33F814
:10C11000021B884501D08842F6D11398FDF7D8F963
:10C120008FB131462046FEF731FC60B1236A002B07
:10C130003FF4E5AE29466369139601336361636A90
:10C1400004F1180098473046FEF7B4F9CCE6000039
:10C15000002302480360FCF73BBE00BF60AE07103F
:10C1600010B5044680680368DB689847E3681844A4
:10C17000E06010BDF8B506460D4600248F18BD429C
:10C180000CD0336830469B6815F8011B9847031E96
:10C1900001DB1C44F3E7002C08BF1C462046F8BD19
:10C1A000704710B504461021FBF7B5FF204610BDBF
:10C1B00013B50446084659B10191FBF783FF0246C7
:10C1C000204623680199DB6802B0BDE8104018479B
:10C1D00002B010BD03689B68184738B50D210546AD
:10C1E000FFF7F8FF0A2104462846FFF7F3FF204433
:10C1F00038BD38B50546FFF7DBFF04462846FFF794
:10C20000ECFF204438BD0023012A98BF0A2230B534
:10C210008BB08DF8243009AC0D46B1FBF2F101FB77
:10C22000125303F0FF03092B94BF30333733DBB2D3
:10C23000AA4204F8013DEFD92146FFF7B9FF0BB040
:10C2400030BD10B50446FCF7E3FCE06023682046EF
:10C250005B699847002808DAFCF7DAFCE368C01A43
:10C26000A3689842F2D34FF0FF3010BD2DE9F041A2
:10C2700007460C460D468E18B542A5EB040807D0BC
:10C280003846FFF7DEFF031E02DB05F8013BF3E74C
:10C290004046BDE8F0817047084611B10B685B6805
:10C2A0001847704770477047704738B504460D46C9
:10C2B00000682E2102F007FB2368C31A2B6023B10C
:10C2C000037803B1013023682060184638BD10B5EB
:10C2D00004460421FBF71FFF204610BD10B504469D
:10C2E0000421FBF718FF204610BDFCF78DBD08B5F3
:10C2F000FBF7DEFEB0FA80F0400908BD704710B5CC
:10C300000C4601F0CBFB844205D101F0C7FBBDE830
:10C31000104001F0B7BB02F063F8844205D102F08F
:10C320005FF8BDE8104001F00EBE2CB12368204636
:10C33000BDE810405B68184710BD13B504460846B9
:10C340000191FBF7BFFE02462046019902B0BDE80D
:10C35000104001F08FBD13B5044608460191FBF76C
:10C36000B1FE0246204623680199DB6802B0BDE8B1
:10C370001040184707B503688DF807100122DB68E5
:10C380000DF10701984703B05DF804FB2DE9F74F65
:10C390004FF0140AD0E90084174645460AFB04F41E
:10C3A0000093174BA4105C43002C21DD66100AFBA0
:10C3B00006F005EB0009B9F804B03A465F4528BF1E
:10C3C0005A462858019102F0AEFA00284FF00103B6
:10C3D00001990BD15F4503D1009A13703446E3E70E
:10C3E000FCD9A61B09F11405013EF7E7F9DBF5E7D7
:10C3F000A5EB08050248AD10684303B0BDE8F08F17
:10C40000CDCCCCCC7FB50369057E019103B3F9B1E6
:10C41000002600F10C04039603A901A8FFF745FFCD
:10C420000146A8B10DF10B032046039A8DF80B606D
:10C43000FFF7ACFF9DF80B3053B12368142404FBC5
:10C440000034B4F906300834002BA8BFDDB2E3E7AE
:10C45000284604B070BD0EB4F0B58CB000AF07F143
:10C46000440555F8042B04462B46202107F1100003
:10C470007A60FD60FDF748F81F287A681AD900F144
:10C48000080323F007036E46ADEB030D411C2B465A
:10C490006846FD60FDF738F8021E04DD2368694632
:10C4A0002046DB689847B5463037BD46BDE8F040CA
:10C4B00003B070470028F7D023680246DB682046A7
:10C4C00007F110019847EFE710B5084CD4E88F3F0B
:10C4D000DB0709D42046FBF72DFE28B12046FBF7E9
:10C4E0002EFE034802F066F9024810BD6CAE07103C
:10C4F00065CC3F0290A8071010B5084CD4E88F3FD8
:10C50000DB0709D42046FBF715FE28B12046FBF7D0
:10C5100016FE034802F04EF9024810BD70AE071037
:10C52000BDCC3F0294A8071038B500250446C0E9E9
:10C530000055C0E904558560856140F8245FFCF72B
:10C5400047FCFFF7C1FFE061FFF7D6FF25732062CC
:10C55000204638BD10B50A4CD4E88F3FDB070CD419
:10C560002046FBF7E7FD40B10648FFF7DDFF204618
:10C57000FBF7E5FD044802F01DF9024810BD00BFBD
:10C5800068AE071078AE071089D43F020023024A34
:10C5900002490348FCF714BE71D23F02FDD13F02AD
:10C5A0007DD13F0200231A4619461846FCF708BE03
:10C5B00037B504468D686846FDF738F86A4629465F
:10C5C000204601F077FB01A8FCF784F8204603B071
:10C5D00030BD37B50446CD686846FDF727F86A4692
:10C5E0002946204601F042FB01A8FCF773F82046DB
:10C5F00003B030BD37B504460D696846FDF716F83F
:10C600006A462946204601F0DAFA01A8FCF762F8EA
:10C61000204603B030BD000070B58AB00D4601461B
:10C6200004A8FFF7C5FF144E04A801F05BFBE8B1B6
:10C63000684604A9FFF7CDFF31460298FFF757FE81
:10C64000044610B12C1E18BF012401A8FCF742F8C3
:10C65000002CE9D0684604A9FFF7CCFF684601F03A
:10C66000E4FA286001A8FCF735F8DDE705A8FCF737
:10C6700031F80AB070BD00BFECFA3F0237B50C4686
:10C68000134920461546FBF713FD50B901F006FA91
:10C690004FF4165101F0F2F903B0BDE8304001F05B
:10C6A000FDB920460B49FBF703FD78B94FF416534B
:10C6B00001A928460193FFF7AFFF01F091FE019910
:10C6C00001F03EFC01F08CFE03B030BD0020FBE722
:10C6D000F1FA3F02F8FA3F0270B51426D0E9005390
:10C6E000044606FB0356AE4205D005F10800FFF7ED
:10C6F000F3FF1435F7E72068FCF7EAFE204670BD2B
:10C7000010B504460C30FFF7E7FF2046FDF7FEFEAC
:10C71000204610BD10B50446034B40F8043BFFF71C
:10C72000EFFF204610BD00BF0CF83F0210B50446D5
:10C73000FFF7F0FF20462421FBF7EDFC204610BD5B
:10C7400010B50446024B0360FFF7E4FF204610BD1E
:10C7500084FB3F0210B50446FFF7F2FF2046242178
:10C76000FBF7D9FC204610BD0A6810B502604A6884
:10C7700042600022C0E9022202618C688A60846003
:10C78000CC68CA60C4600C690A61046110BD0022F3
:10C79000C0E90022826010B50C680A6004604C6831
:10C7A0004A6044608C688A60846010BD10B504469D
:10C7B00003681868FCF736FB204610BD2DE9F04FE2
:10C7C00087B003931C4B80465B688946C3F308031C
:10C7D00016466BB9FFF7BEFE044600F12403406A1B
:10C7E0000593FFF782FD237B2BB105A8FFF7DEFF42
:10C7F00007B0BDE8F08F01235FFA89F92373D4E90C
:10C80000005305EB830AAA4512D055F8047B314644
:10C81000381DFFF7F7FD8145F5D3039A3B68009279
:10C82000D3F808B04A46334641463846D847EAE787
:10C8300000232373D9E700BF00ED00E02DE9F74F97
:10C840009B461A4B80465B688946C3F3080316462D
:10C850006BB9FFF77FFE044600F12403406A0193A1
:10C86000FFF743FD237B2BB101A8FFF79FFF03B028
:10C87000BDE8F08F0123F6B22373D4E9005305EB32
:10C88000830A55450ED055F8047B5946381DFFF7ED
:10C89000B9FD8642F5D33B684A4641463846DB68D7
:10C8A0009847EEE700232373DEE700BF00ED00E0CA
:10C8B0002DE9F341164B05465B680F46C3F30803A9
:10C8C0001BBBFFF747FE044600F12403406A0193B7
:10C8D000FFF70BFDD4E90063462406EB8308B0455F
:10C8E00009D101A8FFF762FFA542B4BF00200120D3
:10C8F00002B0BDE8F08156F8040B39460430FFF76A
:10C9000081FD8442A8BF0446E9E70020F0E700BFAC
:10C9100000ED00E0F8B5D0E901539D4204460E4613
:10C920000DDB6F1C002F006804DDB900FCF7DEFD95
:10C9300018B9F8BDFCF7CCFD00202060A76027687F
:10C94000626807EB85019200A2EB8502081D01F0E9
:10C950005CFF47F825606368012001336360E8E706
:10C9600037B5044600F12403406A01930D46FFF7F2
:10C97000BCFCD4E9003203EB8202934219460AD090
:10C9800009680433A942F8D101A8FFF70FFF002579
:10C99000284603B030BD29462046FFF7BBFF0546B9
:10C9A0000028F1D06368012B01D1FFF7EFFD01A84A
:10C9B000FFF7FCFEECE70B4670B50446D0E9000239
:10C9C00000EB820282420FD001461D6851F8046BD1
:10C9D000AE4207D1521A01F018FF01206368013BF3
:10C9E000636070BD0846EDE70020FAE71FB5044616
:10C9F00000F12403406A01910393FFF776FC20467F
:10CA000001A9FFF7D8FF18B163680BB9FFF7CAFD9A
:10CA100003A8FFF7CBFE04B010BD182370B5044681
:10CA2000D0E9045603FB0656AE4215D0204605F168
:10CA30001001FFF7C0FF63680BB9FFF7B3FDE069B2
:10CA400029690368DB689847696919B1206A036836
:10CA5000DB6898471835E7E71826D4E9045306FB46
:10CA60000356AE4204D02846FCF70EFE1835F8E710
:10CA70000023636170BD73B50446FFF793FD04F1B5
:10CA80002403606A0193FFF730FC2046FFF7C5FFDF
:10CA900001A8FFF78BFE606A08B1FCF7A7F9D4E99B
:10CAA0000453182606FB0356AE4204D02846FCF772
:10CAB000EBFD1835F8E72069FCF70AFD2068FCF764
:10CAC00007FD204602B070BD0148FFF7D4BF00BF8C
:10CAD00078AE07108842F8B504460D46164615D9BB
:10CAE000904214D2A2F11406751AA1F114072C4435
:10CAF000B7421AD01CB131462046FFF735FE06F189
:10CB00000800FFF7E9FD143E143CF1E70DD0B542F3
:10CB10000BD01CB129462046FFF726FE05F1080080
:10CB2000FFF7DAFD14351434F1E7F8BD8842F8B5A3
:10CB300004460D46164614D9904213D2A2F11006AF
:10CB4000751AA1F110072C44B74218D01CB1314618
:10CB50002046FCF722FE3046FCF796FD103E103CC6
:10CB6000F2E70CD0B5420AD01CB129462046FCF7AA
:10CB700014FE2846FCF788FD10351034F2E7F8BDA6
:10CB800070B50E1E054611DD3001FCF793FC04461E
:10CB900058B1D5E9001201EB0212FFF7C7FF286870
:10CBA000FCF796FC01202C60AE6070BD0024F6E717
:10CBB0002DE9F04F90460023462295B00391D8F816
:10CBC000041004469942C0E90033C0E90233C0E9C9
:10CBD0000433CDE9083302760A9323DCD8E9005701
:10CBE000142303FB0757AF423BD029460BA8FCF7A1
:10CBF000D4FD0BA90FA8099EFCF7CFFDDDE90913B1
:10CC000099421BDA089B099A03EB0616314603EB9F
:10CC1000021206F11000FFF789FFEEB9099B0133FC
:10CC2000099311E008A8FFF7ABFF0028D6D108A8A8
:10CC3000FDF76CFC204615B0BDE8F08F013108A867
:10CC4000FFF79EFF0028DDD10FA8FCF71DFD0BA804
:10CC5000FCF71AFD1435C6E730460FA9FCF79DFD19
:10CC6000DCE700264FF01409CDE90B660D96DDE9EF
:10CC700008239E427CDA3301D35806930BB9013660
:10CC8000F5E70023079309FB06F30BAD029307A911
:10CC900006A8FFF70AFB82460028F0D04FF00003F9
:10CCA00001468DF817302846079A0DF11703FFF754
:10CCB0006DFB9DF817700190002F4AD1BDF81C3014
:10CCC000CDE91177ADF840304FF6FF73CDF83CA0B9
:10CCD000ADF842301397D5E90132934217DB03F1E7
:10CCE000010ABAF1000F30DD09FB0AF0FCF7E2FBA4
:10CCF000834660B3D5E9001209FB0212FFF7EAFE92
:10CD00002868FCF7E5FBC5F800B0C5F808A02B685B
:10CD1000019A09FB023A6A68514609FB02320AF19C
:10CD20001400FFF7D7FEBAF1000F03D050460FA949
:10CD3000FFF71AFD6B6801336B6011A8FFF7CCFC9D
:10CD40003FB10BA8FFF7C8FC71E7BB46D8E7012746
:10CD5000F3E7019B2D6809FB0355069B1B782BB954
:10CD6000D8F80030029A13441B7CEB8008358EE71C
:10CD70002168226062686360A36809920A9A0A9334
:10CD8000E368A2600B9A0B932369E2600C9A0C9300
:10CD9000636922610D9A0D93039B0891626123766A
:10CDA000CFE70000F0B504462646174687B00D468B
:10CDB00068461946FBF7A5FD0B4B694646F8043B50
:10CDC00003A8FBF79EFD394603AA3046FFF7F0FEA5
:10CDD00003A8FBF755FD6846FBF752FD2046034BC1
:10CDE0002562236007B0F0BD0CF83F026CFB3F02E8
:10CDF000F0B50F4685B038461C4916461D460A9CBC
:10CE0000FBF756F9C0B9A4B1294601A8FFF7BFFC4A
:10CE10002420174901F0B4FB054630B101AB32467E
:10CE20002146FFF7BFFF134B2B6001A8FBF728FD3E
:10CE30002C46204605B0F0BD38460F49FBF738F9BF
:10CE400090B9002CF5D0294601A8FFF7A0FC2420BA
:10CE5000074901F095FB05460028E6D032462146F9
:10CE600001ABFFF79FFFE0E70024E2E700FB3F0292
:10CE700044FD3F0284FB3F0204FB3F02014B024A98
:10CE80001A60704774AE071015FB3F022DE9F0479A
:10CE9000089DD0F8209004460E461746984600F0AC
:10CEA000FDFD81454DD02B79190704D520466A69CF
:10CEB0005449FFF7D0FAB8F1000F0DD05B2120469E
:10CEC000FFF758FA41462046FFF745FA2368022249
:10CED0002046DB684C4998472B79DA0724D5D5F8EA
:10CEE00008802F21404601F03EFD08B100F1010805
:10CEF00041462046FFF72FFA2B799B0708D53A21A8
:10CF00002046FFF737FA2046EA684049FFF7A3FAC0
:10CF10002A79236812F0040F20464FF00202DB68E2
:10CF200014BF3B493B4998472B7958071DD52969C0
:10CF30000B461A4613F8010B60B1202808D1194698
:10CF4000F7E7354801F0E7F80028ACD0BDE8F087F6
:10CF50002828EED12368521A2046DB6898472368B8
:10CF600004222046DB682D49984700213846FCF70B
:10CF700019F901462046FFF7EEF923680222204600
:10CF8000DB68244998471EB131462046FFF7E3F994
:10CF90002B7913F0300F2CD023682149DB68022253
:10CFA000204698472B79D9060AD5236807222046C0
:10CFB0001C49DB6898472046AA691B49FFF74BFAD2
:10CFC0002B799A0611D5DB0605D523680222204667
:10CFD000DB680F4998472368204614490A22DB681A
:10CFE00098472046E969FFF7B6F95D212046FFF72B
:10CFF000C1F923682046BDE8F0470222DB680C49EE
:10D00000184700BF19FB3F0220FB3F0223FB3F02F2
:10D0100026FB3F022BFB3F02F0AE071029FB3F022D
:10D020002EFB3F0231FB3F0239FB3F023CFB3F023C
:10D0300047FB3F022DE9F0410446076A0D461646BC
:10D0400000F02CFD874207D0206A3246036829464B
:10D05000BDE8F041DB681847034801F05CF80028A0
:10D06000F2D0BDE8F08100BFF0AE07102DE9F0432B
:10D0700085B0D0F8209005460F4690461E460C9C81
:10D0800000F00CFD814505D1494801F044F8002825
:10D0900040F08A804FF000092B6A464A6846CDE985
:10D0A000023900928DF8049000F045FE4946404652
:10D0B000FCF778F8804640490122684600F0CAFE35
:10D0C0004146FFF73AF93FB13C490122684600F07A
:10D0D000C1FE3946FFF731F93EB1394901226846B0
:10D0E00000F0B8FE3146FFF728F92379DF070ED5A7
:10D0F000A6682F21304601F036FC00B1461C3149AC
:10D100000122684600F0A6FE3146FFF716F92379A2
:10D110009E0707D52C490222684600F09BFEE16875
:10D1200000F016FE2379580714D5266933461F46AA
:10D1300013F8012B2AB1202A01D11E46F7E7282A2D
:10D14000F5D102222149684600F084FE3146BA1B1F
:10D1500000F090FE2379190707D51D490122684682
:10D1600000F078FE616900F005FE2379DA0607D544
:10D1700018490422684600F06DFEA16900F0E8FD40
:10D1800023799B0607D514490622684600F062FE03
:10D19000E169FFF7D2F8684600F0B7FD286A02227D
:10D1A00003680E49DB68984705B0BDE8F08300BF0F
:10D1B000F0AE0710DCFA3F02F6FA3F024AFB3F02EC
:10D1C000CBFE3F024CFB3F024EFB3F0251FB3F02B6
:10D1D00054FB3F0256FB3F025BFB3F0247FB3F0213
:10D1E000024B1A68024B1A60704700BF98A80710DC
:10D1F000A0AE07100021FBF7FFBF00000022014B8B
:10D200009A607047A4AE0710014B1860704700BFCA
:10D210009CA8071008B50F4B43B100F03FFC036812
:10D220001B699847002801DD00E000BF0A4B43B1AD
:10D2300001F0D6F803681B699847002801DD00E07B
:10D2400000BF064B0BB101F011F9054B0BB101F01A
:10D2500043F908BD000000000000000000000000CD
:10D260000000000008B5FFF7D5FFFBF7D1FC014B2C
:10D27000186008BD4CAF07100548064A08B5121AD9
:10D28000054901F0B5FA054B054A1A6008BD00BF13
:10D2900000B4071004B40710B0F65F0800B407101C
:10D2A0001E1C279A002307B51A466FF077010093DA
:10D2B000FBF7DAFF03B05DF804FB000007B5438815
:10D2C0000A2B08D0502B0BD1094B1B684BB103B074
:10D2D0005DF804EB1847FFF7E5FF03B05DF804FBCA
:10D2E00000231A466FF077010093FBF7BDFFF4E7C8
:10D2F000B8AE0710002110B51148FCF74BF9114BDF
:10D300001A68114B9A420CBF012200220F4B1A706F
:10D3100001D0FFF7B1FFFBF75FFC044601F098FA7C
:10D320000B4B13B1204600E000BF00210848FCF77A
:10D33000B3F8BDE8104000210648FBF787BF00BFE7
:10D34000C9DB3F0200B407101E1C279AB4AE0710B9
:10D35000000000007DDC3F0270470020704710B5E0
:10D3600004461021FAF7D7FE204610BD08B5FFF796
:10D37000F6FF08BD002230B54FF69C740260848031
:10D380008D888C800C68858004600A6030BD10B583
:10D3900004460068FCF79CF8204610BD38B5C46808
:10D3A00014B32378DBB2022B03D104F10C00FFF796
:10D3B000EEFF231D1D6835B12846FCF74AF9102100
:10D3C0002846FAF7A8FE04F108031D6835B128467F
:10D3D000FCF73FF910212846FAF79DFE2046BDE8EC
:10D3E00038401421FAF797BE38BD10B588B004460E
:10D3F0006846FCF794F9694604A8FCF7E8F904A824
:10D40000A047044604A8FCF73FF96846FCF73CF93E
:10D41000204608B010BD1FB500231024CDE902013D
:10D42000019269461A461846ADF80230ADF8004040
:10D43000FBF7FAFF04B010BD0B6803604B68436054
:10D4400013B15A6801325A60704737B504466846CE
:10D450000D46FFF7F1FF009B019A236000236260F5
:10D4600001A801930093FBF735F935B1281DFBF7AF
:10D4700031F908212846FAF74EFE204603B030BDA8
:10D48000826810B50AB901F07FF8C368BDE81040A2
:10D49000184708B5006800F11001FFF7F1FF08BD5B
:10D4A000826810B50AB901F06FF8C368BDE8104092
:10D4B000184708B5006800F11001FFF7F1FF08BD3B
:10D4C00038B500230446036010200D46FAF71FFE0E
:10D4D00028B10123C0E90133024BC560036020601D
:10D4E000204638BDE8FB3F027FB50026ADF80410AA
:10D4F0000546694602A80096FFF73CFF1420FAF79C
:10D5000006FE044648B1022303700123C0E9016608
:10D51000437002A90C30FFF72DFF2846214640F842
:10D52000044BFFF7CDFF02A8FFF731FF6846FFF776
:10D530002EFF284604B070BD38B5002383608B6889
:10D5400004460D462BB102229847EB68E360AB68B6
:10D55000A360204638BD0000F0B589B00468684675
:10D56000FFF708FF4FF00203D4E84F2F002A03D142
:10D57000C4E8413F0029F7D121D104F10C056946E7
:10D580002846FFF7F7FE0122631CC3E88F2F002017
:10D5900004F10803D3E8EF6FC3E8E20F002AF9D1E2
:10D5A0006EB1FBF737FE78B129463046FFF768FFCA
:10D5B0003046FCF74EF810213046FAF7ACFD6846CD
:10D5C000FFF7E5FE09B0F0BD314602A8FFF7B4FF52
:10D5D000E068B4F9105008B101F088F90690102005
:10D5E000ADF81C50FAF793FD0546E8B100278760B7
:10D5F0001820FAF78CFD044688B10146876002A81E
:10D60000FDF702FF049BA268A360059B0492E268F9
:10D6100006A9E36004F110000592FFF7ABFE084B8A
:10D620002C60EB60074BAB6006A8FFF7B0FE02A8CA
:10D63000FCF70FF8002229460348FBF7F9FDB7E78E
:10D6400053DE3F02E5E03F0213E93F022DE9F043DC
:10D650008DB004460E46174699469DF85880FBF754
:10D66000FFFE40B96FF0D1012046FFF73DFF204695
:10D670000DB0BDE8F08314200025149BCDE90855BA
:10D680000790CDF828900B93FAF741FD014618B1A9
:10D69000C0E901550570457004A80391FFF710FF1C
:10D6A0001F4B08200893FAF732FD054610B103A975
:10D6B000FFF7C2FE07AB009339463046159A5FFA72
:10D6C00088F30995FBF7DAFEB8B9039B01331B78A1
:10D6D000DBB293B905934FF69C7305A903A8ADF887
:10D6E0001830FFF739FF05A8FFF751FE05A8099983
:10D6F000FFF7ABFE06A8FAF7EDFF03A905A8FFF7B1
:10D700009BFE059B069A23600023626006A8069391
:10D710000593FAF7DFFF04A8FAF7DCFFA7E700BFDD
:10D72000A9E13F02012AF8B5054603D10B68036061
:10D730000020F8BD022A10D0032AF9D10468002C79
:10D74000F6D004F11000FFF722FE2046FBF781FF20
:10D7500018212046FAF7DFFCEAE718200E68FAF7EE
:10D76000D6FC044650B13146FFF7E6FE3069B6F903
:10D77000147008B101F0BAF82061A7822C60D7E7D5
:10D7800038B5002383608B6804460D462BB1022216
:10D790009847EB68E360AB68A360204638BD012A78
:10D7A00070B5044603D10B680360002070BD022AE7
:10D7B0000CD0032AF9D10468002CF6D02046FBF7E0
:10D7C00048FF14212046FAF7A6FCEEE714200E6865
:10D7D000FAF79DFC054620B13146FFF7D1FF337CB7
:10D7E0002B742560E1E70000F0B5044689B00D46D2
:10D7F00001A81146FFF729FEA4B124B21DB12846A5
:10D8000001F074F8054601A803A90395ADF810408E
:10D81000FFF7A2FE03A8FFF7BAFD02A8FAF75AFF26
:10D8200009B0F0BD0123019DD5E84F2F002A03D197
:10D83000C5E8413F0029F7D1EFD12B730122EB1846
:10D84000C3E88F2F2B1DD3E8EF6FC3E8E24F002A08
:10D85000F9D1002EE1D02046FBF7DCFC074660B191
:10D86000304605F10C01FFF71BFE3046FBF7F1FED9
:10D8700010213046FAF74FFCCFE7314603A8FFF7F7
:10D880007FFF2B7B10208DF81C30FAF740FC0546FB
:10D89000D0B187601420FAF73AFC044678B101460B
:10D8A000876003A8FDF7B0FD059BA268A360069BF7
:10D8B0000592E268E3609DF81C3006922374074BE2
:10D8C0002C60EB60064BAB6003A8FBF7C2FE0022A6
:10D8D00029460448FBF7ACFCC7E700BF73DE3F02F4
:10D8E0005FE13F0213E93F02704710B5044618217B
:10D8F000FAF711FC204610BDF0B5037D0E46062B4D
:10D900004FF000048DB000F1040712D000F10805BB
:10D9100015F8011D0A223046FEF775FCAF4204449B
:10D9200019D0002CF4D02E213046FEF753FC0444CD
:10D93000EEE72F236A4639460A208DF80040FBF7B0
:10D940007FFA6846FAF7BEFB3368024669463046FE
:10D95000DB689847044620460DB0F0BD10B504467C
:10D96000044B1122002140F8043B00F068FF2046E0
:10D9700010BD00BF04FC3F020346074A10B543F840
:10D98000042B01F1100251F8044B914243F8044B6F
:10D99000F9D10A781A7010BD04FC3F0210B59DF849
:10D9A000084044EA032343EA0242042342EA0161B5
:10D9B0004160037510BD000007B5064B0360CB78CE
:10D9C00000938B784A780978FFF7E8FF03B05DF899
:10D9D00004FB00BF04FC3F0241747047704770476E
:10D9E00008B50021007CFBF789FB40EAE07008BD28
:10D9F00008B50121007CFBF781FB40EAE07008BD1F
:10DA000008B5007CFBF76CFB20EAE07008BD08B5A8
:10DA1000007CFBF757FB20EAE07008BD13B5044615
:10DA2000007C0191FBF75CFB0028019901DC607C24
:10DA300020B1207CFBF770FB20EAE07002B010BD43
:10DA4000007CFBF777BB10B504461421FAF763FBA3
:10DA5000204610BD10B54FF47A73044608460021E5
:10DA6000C4E90113044B207423600123114663743D
:10DA7000FBF7FEFA204610BD18FC3F020022007C96
:10DA8000FBF704BB007CFBF70FBB10B50446142268
:10DA9000002100F0D4FE204610BD000010B588B073
:10DAA00003A8FFF7F2FF0C4CD4E88F1F11F001011F
:10DAB0000FD120460191FAF73DFB019948B103AA25
:10DAC0000648FFF7C7FF2046FAF739FB044800F085
:10DAD00071FE024808B010BDBCAE0710C0AE071002
